:030000000208DC17
:0C08DC00787FE4F6D8FD7581280209231E
:100B5E0020204469676974616C20436C6F636B205D
:100B6E00002020207573696E6720383035312020C3
:020B7E00200055
:100BBF0014080030003100320033003400350036A5
:0E0BCF00003700380039061C0000000000004E
:0F0A4200C2807F017E00120A51D2817F017E00A7
:100A5100D3EF9400EE6480948040257DFAEDD39429
:100A6100007480948040031D80F37DF8EDD39400E1
:100A71007480948040031D80F3EF1F70D31E80D0DB
:010A81002252
:100C0A008FB0C2A0D2A17F057E00120A51C2A122D2
:100B12007C007D0A1209817C007D0A120981ED2583
:070B2200E02408F808E6FFDB
:100B29008FB0D2A0D2A17F057E00120A51C2A122A4
:100B39008B238A248925AB23AA24A9251209686055
:100B4900130525E5257002052414F9120968FF1219
:050B59000B2980E222DF
:100BF6007F38120C0A7F0C120C0A7F01120C0A7F36
:040C060080020C0A52
:0E0C1A00D280120A4BC2817F017E00020A5175
:100BDE00C280120A4DC281120A4DD280120A4DD223
:080BEE00817F017E00020A5123
:020A8200AD07BE
:100A8400E4FCECFF3395E0FEC3EF9408EE6480943D
:100A9400805025C2807E007480A804088006CEA2FF
:100AA400E713CE13D8F8FFEDFBEF5B6003D38001AF
:080AB400C39281D2800C80CABC
:010ABC002217
:100ABD00E4FFFEEEFD3395E0FCC3ED9408EC64809D
:100ACD0094805017C28030810DA806748008800272
:0B0ADD00C313D8FC4207D2800E80D863
:010AE80022EB
:0B0BA000120A82120BABAF01120A8296
:100BAB00120A42D280120A4D2081FDC2807F017E43
:040BBB0000020A51D9
:0C0C2800120A42D2807F017E00020A51B5
:100B8000AC07AA03A905120C1AAF04120BA0AF02FE
:100B9000120A82120BAB120BDE7F0A7E00020A5190
:040AE900AA07A905AA
:100AED00E4FC120C1AAF02120BA0120C1AEA44010C
:100AFD00FF120A82120BAB120ABDAC07120C2812A0
:040B0D000BDEAF0448
:010B110022C1
:0209D600A9076F
:1009D800EB75F00A8475F010A4FFAEF0EB75F00A21
:1009E80084E5F0FBEEF523EF4BF524ED75F00A8472
:1009F80075F010A4FFAEF0ED75F00A84ADF0EEF5D9
:100A080025EF4DF526E975F00A8475F010A4FFAEC0
:100A1800F0E975F00A84ADF0EEF527EF4DF528AB57
:100A280024E4FD7FD0120B80AB267D017FD0120B12
:0A0A380080AB287D027FD0020B8006
:10080000E4F522120BF67BFF7A0B795E120B397F2F
:10081000C0120C0A7BFF7A0B796F120B397FB87EFE
:100820000B120A517F01120C0A7B337D3B7F0C12A5
:1008300009D67FF47E01120A517F80120C0AE4FD72
:100840007FD0120AE98F22E522547FC4540F75F03D
:100850000AA4FFAEF0E522540F7C002FF51DEC3EFC
:10086000F51C7D017FD0120AE98F22E522C4540FC6
:1008700075F00AA4FFAEF0E522540F7C002FF51F9F
:10088000EC3EF51E7D027FD0120AE98F22E522C4DC
:10089000540F75F00AA4FFAEF0E522540F7C002F30
:1008A000F521EC3EF520FEAF21120B14AE20AF2156
:1008B000120B197F3A120B29AE1EAF1F120B12AE8C
:1008C0001EAF1F120B197F3A120B29AE1CAF1D125F
:0C08D0000B12AE1CAF1D120B19020839F0
:1008E800020800E493A3F8E493A34003F68001F21E
:1008F80008DFF48029E493A3F85407240CC8C33311
:10090800C4540F4420C8834004F456800146F6DFDF
:10091800E4800B0102040810204080900BBFE47EA5
:10092800019360BCA3FF543F30E509541FFEE493D4
:10093800A360010ECF54C025E060A840B8E493A39B
:10094800FAE493A3F8E493A3C8C582C8CAC583CAC6
:10095800F0A3C8C582C8CAC583CADFE9DEE780BE7E
:010BDD000017
:10096800BB010689828A83E0225002E722BBFE028D
:09097800E32289828A83E49322C0
:10098100BC000BBE0029EF8DF084FFADF022E4CC5A
:10099100F875F008EF2FFFEE33FEEC33FCEE9DEC23
:1009A100984005FCEE9DFE0FD5F0E9E4CEFD22ED69
:1009B100F8F5F0EE8420D21CFEADF075F008EF2FB3
:1009C100FFED33FD4007985006D5F0F222C398FDA4
:0509D1000FD5F0EA2241
:00000001FF
